:0400000007EF00F016
:0A00080047826FED04F08BEF0BF060
:100800000001000A006400E803102756616C6F7253
:100810002064656C204144433A25640D0A00506908
:10082000657A6173206120636F6E7461723A004370
:1008300075656E74612043756D706C69646100202C
:10084000202050726573696F6E65204F4B00202029
:1008500020454D455247454E434941002042696578
:100860006E76656E69646F20002020202020454E42
:1008700045524749410020202050415241444120E7
:100880004445002020202046414C4C412044450056
:10089000202020205245534554204445002020204C
:1008A00020205553554152494F0046616C74616E8A
:1008B0007465733A200020204F7065726172696F11
:1008C00020004F626A657469766F3A20005472792D
:1008D00020616761696E004572726F7200000600E8
:1008E000D9CF1BF0DACF1CF0F3CF1DF0F4CF1EF000
:1008F000F6CF1FF0F7CF20F0F8CF21F0F5CF22F0A0
:100900009EAA65D0ABA202D0AB98AB88AECF2FF039
:10091000500E2F18D8B404D0700E2F18D8A415D0AC
:10092000010E2E6E8B94030E8D6EB5EC0CF0E8EC80
:100930000CF0760E066E4EEC0BF0C00E8BEC0CF04D
:100940004E0E066E4EEC0BF0FFD72E50D8A40CD0F6
:10095000450E2F18D8B404D0650E2F18D8A404D093
:10096000010E2D6E8B8433D02E50D8A40CD0410EA6
:100970002F18D8B404D0610E2F18D8A404D0020EBA
:100980002D6E8B9424D03204D8A421D0520E2F186F
:10099000D8B404D0720E2F18D8A419D0000E2A6E25
:1009A000000E296E000E2C6E000E2B6E000E286EAF
:1009B000000E276E010E8D6E8B0E8BEC0CF0020E6E
:1009C000096E2B50255C6DEC08F029C08CFFF2A459
:1009D0002DD00B0ED76EDC0ED66EF29489B202D0FB
:1009E000898201D08992000E63EC0CF001C023F0E3
:1009F00002C024F00B0E0D6E23C00EF024C00FF0C9
:100A00006AEC07F02E50D8A409D02D04D8A402D047
:100A10008B840CD0020E2D18D8A402D08B9406D053
:100A20002328010E2458D8B0F3D7F8D79EA011D0B0
:100A3000850ECF6EEE0ECE6E9E90302A1E0E3018B2
:100A4000D8B489963B0E306404D00300306AF2902B
:100A5000CD80F2A0DDD0F00E8118D8B4D1D0306AAC
:100A6000FE0E8A6E81B805D0010E316E43EC0AF09D
:100A7000C5D081BA02D0020EF8D781BC02D0030ED5
:100A8000F4D781BE03D02A0E316EB8D0FD0E8A6E27
:100A900081B802D0040EE9D781BA02D0050EE5D79D
:100AA00081BC02D0060EE1D781BE12D0060E8D6E3B
:100AB000B5EC0CF0E8EC0CF0760E066E4EEC0BF09C
:100AC000C00E8BEC0CF04E0E066E4EEC0BF0FFD70A
:100AD000FB0E8A6E81B802D0070EC7D781BA02D04A
:100AE000080EC3D781BC02D0090EBFD781BE03D088
:100AF00015EC0CF083D0F70E8A6E81B81DD0000E75
:100B00002A6E000E296E000E2C6E000E2B6E000E4B
:100B1000286E000E276E010E8D6E3204D8A46ED0A2
:100B20008B0E8BEC0CF0020E096E2B50255C6DECDD
:100B300008F029C08CFF62D081BA02D0316A96D702
:100B400081BC54D015EC0CF025C02BF026C02CF045
:100B500025C001F026C002F0000E046E0A0E036EDE
:100B60009BEC0AF001C027F002C028F0F60E176EC9
:100B7000FF0E186E17502702F3CF19F0F4CF1AF0BA
:100B80002802F3501A2618502702F3501A2625502F
:100B90001924296E26501A202A6E27502810D8A40E
:100BA00002D0010E1AD027042810D8A402D0050EB6
:100BB00014D0020E27182810D8A402D0040E0DD08D
:100BC000030E27182810D8A402D0060E06D0040E53
:100BD00027182810D8A403D0020E8D6EAAD7050EB0
:100BE00027182810D8A4A5D78D6AA3D781BE06D010
:100BF00089B602D0898601D08996CD80F00E8A6EA2
:100C0000620E176E660EE82EFED7172EFCD7F290F6
:100C100022C0F5FF21C0F8FF20C0F7FF1FC0F6FF7C
:100C20001EC0F4FF1DC0F3FF1CC0DAFF1BC0D9FFBC
:100C3000479211006DEC0BF0336A2F6A0E0EC16EF5
:100C4000010EC26E880EC06E966A070E8D6E956A92
:100C500029C08CFF92928992929489949296899657
:100C6000929894948B94949C948E240EAC6E900ED7
:100C7000AB6E080EB86E190EAF6E9482929A898A86
:100C8000010ED56E0B0ED76EDC0ED66EF294F28A84
:100C9000D58EB10ECD6E0B0ECF6EDC0ECE6E9E904D
:100CA0009D80CD80F00E936E8A6AF19E210E000128
:100CB0006D6F760EE82EFED76D2FFCD70000F290F8
:100CC000F2869E9A9D8AF28CF28E8986E0EC08F07C
:100CD000D0B213D0D082A1EC0CF0E0EC0CF0830E7B
:100CE0000001656F2EEC0BF0C00E7EEC0CF0690E6F
:100CF0000001656F2EEC0BF011D0A1EC0CF0E0ECD4
:100D00000CF0900E0001656F2EEC0BF0C00E7EEC27
:100D10000CF09D0E0001656F2EEC0BF0020E000131
:100D20006E6F450E6D6FA90EE82EFED76D2FFCD7A6
:100D30006E2FFAD700D089963CEC09F0E0EC0CF06D
:100D4000AA0E0001656F2EEC0BF0020E686F2B509F
:100D5000255CF6EC07F0C00E7EEC0CF0C20E000134
:100D6000656F2EEC0BF0020E686F2550F6EC07F065
:100D7000010E326EA7D025502B182AE126502C18D0
:100D8000D8A426D08984020E00016E6F450E6D6FC7
:100D9000A90EE82EFED76D2FFCD76E2FFAD700D004
:100DA0008994A1EC0CF02F0E0001656F2EEC0BF076
:100DB000C00E7EEC0CF03F0E0001656F2EEC0BF0C8
:100DC000326A316A2A0E3118D8A4FCD76DEC0BF0C8
:100DD00082B209D025502B1804E126502C18D8B423
:100DE00002D0306A466A4650D8B482A26BD0010E57
:100DF000466E294A2A2A2B4A2C2A0A0E29182A101A
:100E0000D8A425D08984620E00016D6F650EE82E8E
:100E1000FED76D2FFCD700D08994000E2A6E000EED
:100E2000296E274A282A060E27182810D8A40FD082
:100E30008984620E00016D6F650EE82EFED76D2F5E
:100E4000FCD700D08994000E286E000E276E275024
:100E50002810D8A402D0010E1AD027042810D8A434
:100E600002D0050E14D0020E27182810D8A402D0E4
:100E7000040E0DD0030E27182810D8A402D0060E99
:100E800006D0040E27182810D8A403D0020E8D6EA9
:100E900005D0050E27182810D8B48D6A8B0E7EEC6D
:100EA0000CF0020E0001686F2B50255CF6EC07F089
:100EB00029C08CFFA30E00016D6F550EE82EFED7E2
:100EC0006D2FFCD73204D8B456D7020E8D6E29C0D0
:100ED0008CFF32D70E0E116E7BD0250E1618D8B4AB
:100EE00004D01650D6EC0CF073D0126A0D2A0D0403
:100EF000106E10C0F6FF080EF76E0800F5CF16F062
:100F00001650000AD8B41200640AD8B403D00D0AEF
:100F1000D8A45ED01150D96EDA6ADECF14F0DDCFDE
:100F200015F0020E112615AE06D0030E1212146C27
:100F3000151ED8B0152A010E166E1650020DF3506C
:100F4000010F106E10C0F6FF080EF76E0900F55085
:100F5000145C0900F5501558D8A005D0162A050EC6
:100F60001618D8A4EAD712C010F0030E1016D8B481
:100F700003D02D0ED6EC0CF016C013F025D0135074
:100F8000020DF350010F106E10C0F6FF080EF76E41
:100F90000900F5CF03F00A00F5CF04F014C001F00A
:100FA00015C002F09BEC0AF001C008F002C009F085
:100FB000000E0B6E0A0E0A6E0DEC0BF00850300F8F
:100FC000166E1650D6EC0CF013061328D8A4D7D7FB
:100FD0000D2A0D04106E10C0F6FF080EF76E080003
:100FE000F5CF16F01650D8B4120077D76C6F8988F9
:100FF00068D00A0E606F6C512CEC0CF06B6F6B516B
:10100000300FC4EC0AF0C8EC0CF0040E14EC0AF03B
:1010100012000A0E646F640E606F6C512CEC0CF0C1
:10102000A8EC0BF06A6F0A0E606F6C512CEC0CF0A0
:101030006B6F6A51300FC4EC0AF0C8EC0CF0040E70
:1010400014EC0AF000016B51300FC4EC0AF0C8EC4C
:101050000CF0040E14EC0AF01200640E646F6C5174
:10106000A8EC0BF0696F0A0E646F640E606F6C5130
:101070002CEC0CF0A8EC0BF06A6F0A0E606F6C5150
:101080002CEC0CF06B6F6951300FC4EC0AF0C8EC1B
:101090000CF0040E14EC0AF000016A51300FC4EC9D
:1010A0000AF0C8EC0CF0040E14EC0AF000016B51CD
:1010B000300FC4EC0AF0C8EC0CF0040E14EC0AF08B
:1010C000120000016851010AD8B493D7030AD8B4BA
:1010D000A0D7010AD8A41200C0D70D6E898865D0A8
:1010E0000A0E016E0D5041EC0CF00C6E0C50300FDE
:1010F000EAEC0AF0CFEC0CF0040E70EC0AF01200EF
:101100000A0E056E640E016E0D5041EC0CF0C5EC3C
:101110000BF00B6E0A0E016E0D5041EC0CF00C6ED4
:101120000B50300FEAEC0AF0CFEC0CF0040E70EC30
:101130000AF00C50300FEAEC0AF0CFEC0CF0040E81
:1011400070EC0AF01200640E056E0D50C5EC0BF049
:101150000A6E0A0E056E640E016E0D5041EC0CF025
:10116000C5EC0BF00B6E0A0E016E0D5041EC0CF04D
:101170000C6E0A50300FEAEC0AF0CFEC0CF0040EC3
:1011800070EC0AF00B50300FEAEC0AF0CFEC0CF0E8
:10119000040E70EC0AF00C50300FEAEC0AF0CFECC1
:1011A0000CF0040E70EC0AF012000950010AD8B4D9
:1011B00097D7030AD8B4A4D7010AD8A41200C3D77A
:1011C000040E55EC0CF096EC09F0E0EC0CF03E0E41
:1011D0000001656F000E666FE4EC09F0000E71EC23
:1011E0000CF0000E71EC0CF05C0E0001656F2EEC43
:1011F0000BF0000E71EC0CF0000E71EC0CF0C00E58
:101200007EEC0CF0000E71EC0CF0000E71EC0CF0AA
:10121000B60E0001656F2EEC0BF0000E71EC0CF0B9
:10122000000E71EC0CF0060E00016A6F540E696F2F
:101230009D0EE82EFED7692FFCD76A2FFAD7000E35
:1012400000016C6F000E6B6FABEC0CF0210E000117
:10125000696F760EE82EFED7692FFCD700000001DB
:101260006B4B6C2B6CBFF0D76C5105E1120E6B5DB4
:10127000D8B01200E9D71200360E0001656F010EDA
:10128000666FE4EC09F0346AA1EC0CF01E0E00016C
:10129000656F2EEC0BF0C70E7EEC0CF0010E71ECBE
:1012A0000CF0010E71EC0CF0C70E7EEC0CF0DCECD7
:1012B0000CF0010E336E2A0E3118D8A4FCD726503C
:1012C00008E13C0E255CD8B004D025502610D8A4E7
:1012D00027D0336A316A000E266E000E256EA1EC0F
:1012E0000CF0E0EC0CF0D70E0001656F2EEC0BF06B
:1012F000C00E7EEC0CF0CD0E0001656F2EEC0BF0F5
:10130000030E00016A6F8A0E696F550EE82EFED734
:10131000692FFCD76A2FFAD700D0A1EC0CF0ACD71C
:10132000336A346AA1EC0CF0316A12008998040E19
:101330003518D8A404D08C500F0B300901D03F0EC3
:101340008C6EC8EC0CF0010E14EC0AF0040E35188B
:10135000D8A404D08C500F0B300901D03F0E8C6EF6
:10136000C8EC0CF0030E14EC0AF0040E3518D8A4E7
:1013700004D08C500F0B300901D03F0E8C6EC8EC9E
:101380000CF0040E14EC0AF0040E3518D8A411D099
:101390008C500F0B20098C6EC8EC0CF0040E14EC72
:1013A0000AF02F0EC4EC0AF0C8EC0CF0040E14EC9A
:1013B0000AF0A1EC0CF00F0EC4EC0AF0C8EC0CF033
:1013C000040E14EC0AF0120089986651080DF350CF
:1013D0004009C4EC0AF0C8EC0CF0040E14EC0AF05E
:1013E0008988020E14EC0AF0000E0001686F000EEE
:1013F000676F65516725D96EDA6ADF50C4EC0AF071
:10140000C8EC0CF0040E14EC0AF00001674B682BDA
:1014100068BFEFD7685104E1080E675DD8A0E9D72F
:10142000800E7EEC0CF012000001616F1DD0050EE5
:101430000001606FDD0EE82EFED7602FFCD700D0D4
:101440001200530EE82EFED70000350EE82EFED710
:1014500000001200080EE82EFED700001200030E56
:10146000E82EFED70000120000016151010AD8B435
:10147000DED7030AD8B4E5D7010AD8B4EBD7070AF8
:10148000D8A41200ECD73450D8A40CD03304D8A47C
:1014900009D0010E096E31506DEC08F031C025F015
:1014A000266A1CD03404D8A419D03304D8A416D08A
:1014B000010E096E31506DEC08F00A0E2502F3CFD3
:1014C0000EF0F4CF0FF02602F3500F2631500E2409
:1014D000256E000E0F20266EE8EC0CF0342A120068
:1014E000026E1BD0050E016EDE0EE82EFED7012E19
:1014F000FCD71200530EE82EFED70000350EE82E62
:10150000FED700001200080EE82EFED700001200E1
:10151000030EE82EFED7000012000250010AD8B4D4
:10152000E1D7030AD8B4E6D7010AD8B4ECD7070A42
:10153000D8A41200EDD7000E066E000E056E035003
:101540000410D8B41CD0010E076E04D0D890033616
:101550000436072A04AEFAD7D8900536063603506B
:10156000015C04500258D8A005D00350015E04501D
:10157000025A0580D89004320332072EEDD705C0F9
:1015800001F006C002F012000001636F040E35186E
:10159000D8A419D063C062F0F00E000162178C501D
:1015A0000F0B62118C6EC8EC0CF0010E14EC0AF0FB
:1015B00063C062F00001623BF00E62178C500F0BAB
:1015C00062118C6E1200080E3518D8A4120063C088
:1015D0008CFF1200046E040E3518D8A417D004C076
:1015E00003F0F00E03168C500F0B03108C6ECFEC33
:1015F0000CF0010E70EC0AF004C003F0033AF00E98
:1016000003168C500F0B03108C6E1200080E351849
:10161000D8A4120004C08CFF12000A500B10D8B4DA
:1016200018D0010E0C6E04D0D8900A360B360C2A56
:101630000BAEFAD70A50085C0B500958D8A004D05A
:101640000A50085E0B50095AD8900B320A320C2E01
:10165000F1D708C008F009C009F01200000E686F49
:10166000000E676F0ED065516725666F66C0F6FF86
:10167000080EF76E0800F55071EC0CF00001674B96
:10168000682B65516725666F66C0F6FF080EF76E1A
:101690000800F5500009D8B41200E5D7000E096E15
:1016A000000E086E0DD006500824076E07C0F6FF26
:1016B000080EF76E0800F55096EC0CF0084A092A5F
:1016C00006500824076E07C0F6FF080EF76E0800E4
:1016D000F5500009D8B41200E6D7010E466E000E90
:1016E0002A6E000E296E326A000E2C6E000E2B6ED2
:1016F000000E286E000E276E346A000E266E000E55
:10170000256E316A306A000E246E000E236E2F6A39
:101710002E6A2D6A12007E0EF66E190EF76E000EFE
:10172000F86E00EE35F010EE11F00900F5CFEEFF87
:10173000E550E150FAE100EE23F0120EEE6AE80601
:10174000FDE147904792000EF86E00011AEF06F097
:10175000656F0001676B6451D8B415D0010E666FD8
:1017600003D0D8906437662B64AFFBD7D890673727
:101770006451655DD8A003D06451655F6781D890DE
:101780006433662FF3D767511200066E086A05505E
:10179000D8B415D0010E076E03D0D8900536072AAD
:1017A00005AEFBD7D89008360550065CD8A003D00C
:1017B0000550065E0880D8900532072EF3D70850F2
:1017C00012000001656F899800016505D8A403D057
:1017D000A1EC0CF012006551FE0B020AD8A403D054
:1017E000E4EC0CF012006551C4EC0AF0C8EC0CF00B
:1017F000040E14EC0AF01200066E89980604D8A4B0
:1018000003D0B5EC0CF012000650FE0B020AD8A46F
:1018100003D0F0EC0CF012000650EAEC0AF0CFEC2A
:101820000CF0040E70EC0AF012003304D8A412007D
:10183000ECEC0CF0000E266E000E256E346AC70E1E
:101840008BEC0CF0010E96EC0CF0010E96EC0CF00B
:10185000C70E8BEC0CF01200616F080E0001626F76
:10186000636BD89061356335636FD8906137605191
:10187000635DD8A002D06051635F622FF2D76351DD
:101880001200026E080E036E046AD890023404340B
:10189000046ED89002360150045CD8A002D00150EA
:1018A000045E032EF2D7045012000001606F040E94
:1018B00000016019D8B404D0080E6019D8A4120031
:1018C00060C035F01200036E0344E846FC0BC26EA4
:1018D000C280C282C2B2FED7C3CF01F0C4CF02F031
:1018E00012000001646F898800016451C4EC0AF0A1
:1018F000C8EC0CF0040E14EC0AF012000001646F46
:10190000899800016451C4EC0AF0C8EC0CF0040E94
:1019100014EC0AF01200056E89980550EAEC0AF002
:10192000CFEC0CF0040E70EC0AF01200056E898802
:101930000550EAEC0AF0CFEC0CF0040E70EC0AF063
:1019400012008998010EC4EC0AF0C8EC0CF0020EEB
:1019500014EC0AF0120089981C0EC4EC0AF0C8ECD2
:101960000CF0040E14EC0AF012008998010EEAEC57
:101970000AF0CFEC0CF0020E70EC0AF01200081F17
:0F1980001111111111111F040E1F0E1F0E040063
:10199000898A030EE82EFED70000899A1200898AF0
:1019A000030EE82EFED70000899A1200016EACA249
:1019B000FED701C0ADFF12000F0EE1EC0BF01200DC
:1019C0000C0EE1EC0BF01200800E7EEC0CF012001D
:1019D0000C0EFCEC0BF012000F0EFCEC0BF01200E6
:0819E000800E8BEC0CF01200EC
:020000040020DA
:08000000FFFFFFFFFFFFFFFF00
:020000040030CA
:0E00000000091F1EFF8381FF0FC00FE00F409D
:00000001FF
